{
  "contractName": "SimpleStorage",
  "abi": [
    {
      "inputs": [],
      "payable": false,
      "stateMutability": "nonpayable",
      "type": "constructor"
    },
    {
      "constant": true,
      "inputs": [
        {
          "internalType": "address",
          "name": "_address",
          "type": "address"
        }
      ],
      "name": "isAdmin",
      "outputs": [
        {
          "internalType": "bool",
          "name": "",
          "type": "bool"
        }
      ],
      "payable": false,
      "stateMutability": "view",
      "type": "function"
    },
    {
      "constant": true,
      "inputs": [
        {
          "internalType": "address",
          "name": "_address",
          "type": "address"
        }
      ],
      "name": "getTokens",
      "outputs": [
        {
          "internalType": "string",
          "name": "",
          "type": "string"
        }
      ],
      "payable": false,
      "stateMutability": "view",
      "type": "function"
    },
    {
      "constant": false,
      "inputs": [
        {
          "internalType": "address",
          "name": "_address",
          "type": "address"
        },
        {
          "internalType": "string",
          "name": "_token",
          "type": "string"
        }
      ],
      "name": "updateTokens",
      "outputs": [
        {
          "internalType": "string",
          "name": "",
          "type": "string"
        }
      ],
      "payable": false,
      "stateMutability": "nonpayable",
      "type": "function"
    },
    {
      "constant": true,
      "inputs": [
        {
          "internalType": "address",
          "name": "_address",
          "type": "address"
        }
      ],
      "name": "getDistributorInfo",
      "outputs": [
        {
          "components": [
            {
              "internalType": "string",
              "name": "location",
              "type": "string"
            },
            {
              "internalType": "string",
              "name": "longitude",
              "type": "string"
            },
            {
              "internalType": "string",
              "name": "latitude",
              "type": "string"
            },
            {
              "internalType": "uint256",
              "name": "vaccineCount",
              "type": "uint256"
            },
            {
              "internalType": "uint256",
              "name": "projectedVaccines",
              "type": "uint256"
            },
            {
              "internalType": "string",
              "name": "vaccineDeliveries",
              "type": "string"
            }
          ],
          "internalType": "struct SimpleStorage.distributor",
          "name": "",
          "type": "tuple"
        }
      ],
      "payable": false,
      "stateMutability": "view",
      "type": "function"
    },
    {
      "constant": true,
      "inputs": [
        {
          "internalType": "address",
          "name": "_address",
          "type": "address"
        }
      ],
      "name": "getClinicInfo",
      "outputs": [
        {
          "components": [
            {
              "internalType": "string",
              "name": "location",
              "type": "string"
            },
            {
              "internalType": "string",
              "name": "longitude",
              "type": "string"
            },
            {
              "internalType": "string",
              "name": "latitude",
              "type": "string"
            },
            {
              "internalType": "uint256",
              "name": "vaccineCount",
              "type": "uint256"
            },
            {
              "internalType": "string",
              "name": "requestedVaccines",
              "type": "string"
            },
            {
              "internalType": "string",
              "name": "vaccineDeliveries",
              "type": "string"
            }
          ],
          "internalType": "struct SimpleStorage.clinic",
          "name": "",
          "type": "tuple"
        }
      ],
      "payable": false,
      "stateMutability": "view",
      "type": "function"
    },
    {
      "constant": false,
      "inputs": [
        {
          "internalType": "address",
          "name": "_address",
          "type": "address"
        },
        {
          "internalType": "string",
          "name": "_longitude",
          "type": "string"
        },
        {
          "internalType": "string",
          "name": "_latitude",
          "type": "string"
        },
        {
          "internalType": "string",
          "name": "_location",
          "type": "string"
        },
        {
          "internalType": "uint256",
          "name": "_vaccineCount",
          "type": "uint256"
        },
        {
          "internalType": "uint256",
          "name": "_projectedVaccines",
          "type": "uint256"
        },
        {
          "internalType": "string",
          "name": "_vaccineDeliveries",
          "type": "string"
        }
      ],
      "name": "createDistributor",
      "outputs": [],
      "payable": false,
      "stateMutability": "nonpayable",
      "type": "function"
    },
    {
      "constant": false,
      "inputs": [
        {
          "internalType": "address",
          "name": "_address",
          "type": "address"
        },
        {
          "internalType": "string",
          "name": "_longitude",
          "type": "string"
        },
        {
          "internalType": "string",
          "name": "_latitude",
          "type": "string"
        },
        {
          "internalType": "string",
          "name": "_location",
          "type": "string"
        },
        {
          "internalType": "uint256",
          "name": "_vaccineCount",
          "type": "uint256"
        },
        {
          "internalType": "string",
          "name": "_requestVaccines",
          "type": "string"
        },
        {
          "internalType": "string",
          "name": "_vaccineDeliveries",
          "type": "string"
        }
      ],
      "name": "createClinic",
      "outputs": [],
      "payable": false,
      "stateMutability": "nonpayable",
      "type": "function"
    },
    {
      "constant": false,
      "inputs": [
        {
          "internalType": "address",
          "name": "_address",
          "type": "address"
        },
        {
          "internalType": "uint256",
          "name": "_vaccineCount",
          "type": "uint256"
        },
        {
          "internalType": "string",
          "name": "_requestVaccines",
          "type": "string"
        }
      ],
      "name": "updateClinicInventory",
      "outputs": [],
      "payable": false,
      "stateMutability": "nonpayable",
      "type": "function"
    },
    {
      "constant": false,
      "inputs": [
        {
          "internalType": "address",
          "name": "_address",
          "type": "address"
        },
        {
          "internalType": "uint256",
          "name": "_vaccineCount",
          "type": "uint256"
        },
        {
          "internalType": "uint256",
          "name": "_projectedVaccines",
          "type": "uint256"
        }
      ],
      "name": "updateDistributorInventory",
      "outputs": [],
      "payable": false,
      "stateMutability": "nonpayable",
      "type": "function"
    },
    {
      "constant": false,
      "inputs": [
        {
          "internalType": "address",
          "name": "_addressFrom",
          "type": "address"
        },
        {
          "internalType": "address",
          "name": "_addressTo",
          "type": "address"
        },
        {
          "internalType": "string",
          "name": "_vaccineDeliveriesFrom",
          "type": "string"
        },
        {
          "internalType": "string",
          "name": "_vaccineDeliveriesTo",
          "type": "string"
        }
      ],
      "name": "manageShipment",
      "outputs": [],
      "payable": false,
      "stateMutability": "nonpayable",
      "type": "function"
    },
    {
      "constant": true,
      "inputs": [
        {
          "internalType": "address",
          "name": "_address",
          "type": "address"
        }
      ],
      "name": "getAccountType",
      "outputs": [
        {
          "internalType": "string",
          "name": "",
          "type": "string"
        }
      ],
      "payable": false,
      "stateMutability": "view",
      "type": "function"
    }
  ],
  "bytecode": "0x6080604052737c0e53eeb5368bc36a17841e63b1815c0783a6ec6000806101000a81548173ffffffffffffffffffffffffffffffffffffffff021916908373ffffffffffffffffffffffffffffffffffffffff1602179055503480156200006557600080fd5b506040518060600160405280602e815260200162002430602e913960019080519060200190620000979291906200009e565b506200014d565b828054600181600116156101000203166002900490600052602060002090601f016020900481019282601f10620000e157805160ff191683800117855562000112565b8280016001018555821562000112579182015b8281111562000111578251825591602001919060010190620000f4565b5b50905062000121919062000125565b5090565b6200014a91905b80821115620001465760008160009055506001016200012c565b5090565b90565b6122d3806200015d6000396000f3fe608060405234801561001057600080fd5b50600436106100a95760003560e01c8063450efe2111610071578063450efe211461017657806360699067146101a657806377247d35146101d65780637cdf0ca0146101f2578063ae2031461461020e578063ec08dcc11461023e576100a9565b8063015e21e7146100ae578063109aaade146100ca57806313d7fbe7146100e657806324d7806c146101165780633d136f4514610146575b600080fd5b6100c860048036036100c39190810190611d2e565b61025a565b005b6100e460048036036100df9190810190611c18565b6103ef565b005b61010060048036036100fb9190810190611b08565b610597565b60405161010d91906120f2565b60405180910390f35b610130600480360361012b9190810190611b08565b610924565b60405161013d91906120b5565b60405180910390f35b610160600480360361015b9190810190611b08565b61098e565b60405161016d9190612114565b60405180910390f35b610190600480360361018b9190810190611b08565b610c83565b60405161019d91906120d0565b60405180910390f35b6101c060048036036101bb9190810190611bc4565b610dba565b6040516101cd91906120d0565b60405180910390f35b6101f060048036036101eb9190810190611e93565b610e71565b005b61020c60048036036102079190810190611b31565b6112e1565b005b61022860048036036102239190810190611b08565b611395565b60405161023591906120d0565b60405180910390f35b61025860048036036102539190810190611e2c565b611476565b005b6102626118f9565b6040518060c0016040528086815260200188815260200187815260200185815260200184815260200183815250905080600360008a73ffffffffffffffffffffffffffffffffffffffff1673ffffffffffffffffffffffffffffffffffffffff16815260200190815260200160002060008201518160000190805190602001906102ed92919061192f565b50602082015181600101908051906020019061030a92919061192f565b50604082015181600201908051906020019061032792919061192f565b50606082015181600301556080820151816004015560a082015181600501908051906020019061035892919061192f565b509050506040518060400160405280600881526020017f737570706c696572000000000000000000000000000000000000000000000000815250600460008a73ffffffffffffffffffffffffffffffffffffffff1673ffffffffffffffffffffffffffffffffffffffff16815260200190815260200160002090805190602001906103e49291906119af565b505050505050505050565b6103f7611a2f565b6040518060c0016040528086815260200188815260200187815260200185815260200184815260200183815250905080600260008a73ffffffffffffffffffffffffffffffffffffffff1673ffffffffffffffffffffffffffffffffffffffff168152602001908152602001600020600082015181600001908051906020019061048292919061192f565b50602082015181600101908051906020019061049f92919061192f565b5060408201518160020190805190602001906104bc92919061192f565b506060820151816003015560808201518160040190805190602001906104e392919061192f565b5060a082015181600501908051906020019061050092919061192f565b509050506040518060400160405280600681526020017f636c696e69630000000000000000000000000000000000000000000000000000815250600460008a73ffffffffffffffffffffffffffffffffffffffff1673ffffffffffffffffffffffffffffffffffffffff168152602001908152602001600020908051906020019061058c9291906119af565b505050505050505050565b61059f611a2f565b600260008373ffffffffffffffffffffffffffffffffffffffff1673ffffffffffffffffffffffffffffffffffffffff1681526020019081526020016000206040518060c0016040529081600082018054600181600116156101000203166002900480601f0160208091040260200160405190810160405280929190818152602001828054600181600116156101000203166002900480156106825780601f1061065757610100808354040283529160200191610682565b820191906000526020600020905b81548152906001019060200180831161066557829003601f168201915b50505050508152602001600182018054600181600116156101000203166002900480601f0160208091040260200160405190810160405280929190818152602001828054600181600116156101000203166002900480156107245780601f106106f957610100808354040283529160200191610724565b820191906000526020600020905b81548152906001019060200180831161070757829003601f168201915b50505050508152602001600282018054600181600116156101000203166002900480601f0160208091040260200160405190810160405280929190818152602001828054600181600116156101000203166002900480156107c65780601f1061079b576101008083540402835291602001916107c6565b820191906000526020600020905b8154815290600101906020018083116107a957829003601f168201915b5050505050815260200160038201548152602001600482018054600181600116156101000203166002900480601f0160208091040260200160405190810160405280929190818152602001828054600181600116156101000203166002900480156108725780601f1061084757610100808354040283529160200191610872565b820191906000526020600020905b81548152906001019060200180831161085557829003601f168201915b50505050508152602001600582018054600181600116156101000203166002900480601f0160208091040260200160405190810160405280929190818152602001828054600181600116156101000203166002900480156109145780601f106108e957610100808354040283529160200191610914565b820191906000526020600020905b8154815290600101906020018083116108f757829003601f168201915b5050505050815250509050919050565b60008060009054906101000a900473ffffffffffffffffffffffffffffffffffffffff1673ffffffffffffffffffffffffffffffffffffffff168273ffffffffffffffffffffffffffffffffffffffff1614156109845760019050610989565b600090505b919050565b6109966118f9565b600360008373ffffffffffffffffffffffffffffffffffffffff1673ffffffffffffffffffffffffffffffffffffffff1681526020019081526020016000206040518060c0016040529081600082018054600181600116156101000203166002900480601f016020809104026020016040519081016040528092919081815260200182805460018160011615610100020316600290048015610a795780601f10610a4e57610100808354040283529160200191610a79565b820191906000526020600020905b815481529060010190602001808311610a5c57829003601f168201915b50505050508152602001600182018054600181600116156101000203166002900480601f016020809104026020016040519081016040528092919081815260200182805460018160011615610100020316600290048015610b1b5780601f10610af057610100808354040283529160200191610b1b565b820191906000526020600020905b815481529060010190602001808311610afe57829003601f168201915b50505050508152602001600282018054600181600116156101000203166002900480601f016020809104026020016040519081016040528092919081815260200182805460018160011615610100020316600290048015610bbd5780601f10610b9257610100808354040283529160200191610bbd565b820191906000526020600020905b815481529060010190602001808311610ba057829003601f168201915b505050505081526020016003820154815260200160048201548152602001600582018054600181600116156101000203166002900480601f016020809104026020016040519081016040528092919081815260200182805460018160011615610100020316600290048015610c735780601f10610c4857610100808354040283529160200191610c73565b820191906000526020600020905b815481529060010190602001808311610c5657829003601f168201915b5050505050815250509050919050565b60606000809054906101000a900473ffffffffffffffffffffffffffffffffffffffff1673ffffffffffffffffffffffffffffffffffffffff168273ffffffffffffffffffffffffffffffffffffffff161415610d7c5760018054600181600116156101000203166002900480601f016020809104026020016040519081016040528092919081815260200182805460018160011615610100020316600290048015610d705780601f10610d4557610100808354040283529160200191610d70565b820191906000526020600020905b815481529060010190602001808311610d5357829003601f168201915b50505050509050610db5565b6040518060400160405280600c81526020017f556e617574686f72697a6564000000000000000000000000000000000000000081525090505b919050565b60606000809054906101000a900473ffffffffffffffffffffffffffffffffffffffff1673ffffffffffffffffffffffffffffffffffffffff168373ffffffffffffffffffffffffffffffffffffffff161415610e2d578160019080519060200190610e279291906119af565b50610e6a565b6040518060400160405280600c81526020017f556e617574686f72697a656400000000000000000000000000000000000000008152509050610e6b565b5b92915050565b610e796118f9565b6040518060c00160405280600360008773ffffffffffffffffffffffffffffffffffffffff1673ffffffffffffffffffffffffffffffffffffffff1681526020019081526020016000206000018054600181600116156101000203166002900480601f016020809104026020016040519081016040528092919081815260200182805460018160011615610100020316600290048015610f5a5780601f10610f2f57610100808354040283529160200191610f5a565b820191906000526020600020905b815481529060010190602001808311610f3d57829003601f168201915b50505050508152602001600360008773ffffffffffffffffffffffffffffffffffffffff1673ffffffffffffffffffffffffffffffffffffffff1681526020019081526020016000206001018054600181600116156101000203166002900480601f01602080910402602001604051908101604052809291908181526020018280546001816001161561010002031660029004801561103a5780601f1061100f5761010080835404028352916020019161103a565b820191906000526020600020905b81548152906001019060200180831161101d57829003601f168201915b50505050508152602001600360008773ffffffffffffffffffffffffffffffffffffffff1673ffffffffffffffffffffffffffffffffffffffff1681526020019081526020016000206002018054600181600116156101000203166002900480601f01602080910402602001604051908101604052809291908181526020018280546001816001161561010002031660029004801561111a5780601f106110ef5761010080835404028352916020019161111a565b820191906000526020600020905b8154815290600101906020018083116110fd57829003601f168201915b50505050508152602001848152602001838152602001600360008773ffffffffffffffffffffffffffffffffffffffff1673ffffffffffffffffffffffffffffffffffffffff1681526020019081526020016000206005018054600181600116156101000203166002900480601f0160208091040260200160405190810160405280929190818152602001828054600181600116156101000203166002900480156112065780601f106111db57610100808354040283529160200191611206565b820191906000526020600020905b8154815290600101906020018083116111e957829003601f168201915b5050505050815250905080600360008673ffffffffffffffffffffffffffffffffffffffff1673ffffffffffffffffffffffffffffffffffffffff168152602001908152602001600020600082015181600001908051906020019061126c92919061192f565b50602082015181600101908051906020019061128992919061192f565b5060408201518160020190805190602001906112a692919061192f565b50606082015181600301556080820151816004015560a08201518160050190805190602001906112d792919061192f565b5090505050505050565b80600260008573ffffffffffffffffffffffffffffffffffffffff1673ffffffffffffffffffffffffffffffffffffffff16815260200190815260200160002060050190805190602001906113379291906119af565b5081600360008673ffffffffffffffffffffffffffffffffffffffff1673ffffffffffffffffffffffffffffffffffffffff168152602001908152602001600020600501908051906020019061138e9291906119af565b5050505050565b6060600460008373ffffffffffffffffffffffffffffffffffffffff1673ffffffffffffffffffffffffffffffffffffffff1681526020019081526020016000208054600181600116156101000203166002900480601f01602080910402602001604051908101604052809291908181526020018280546001816001161561010002031660029004801561146a5780601f1061143f5761010080835404028352916020019161146a565b820191906000526020600020905b81548152906001019060200180831161144d57829003601f168201915b50505050509050919050565b61147e611a2f565b6040518060c00160405280600260008773ffffffffffffffffffffffffffffffffffffffff1673ffffffffffffffffffffffffffffffffffffffff1681526020019081526020016000206000018054600181600116156101000203166002900480601f01602080910402602001604051908101604052809291908181526020018280546001816001161561010002031660029004801561155f5780601f106115345761010080835404028352916020019161155f565b820191906000526020600020905b81548152906001019060200180831161154257829003601f168201915b50505050508152602001600260008773ffffffffffffffffffffffffffffffffffffffff1673ffffffffffffffffffffffffffffffffffffffff1681526020019081526020016000206001018054600181600116156101000203166002900480601f01602080910402602001604051908101604052809291908181526020018280546001816001161561010002031660029004801561163f5780601f106116145761010080835404028352916020019161163f565b820191906000526020600020905b81548152906001019060200180831161162257829003601f168201915b50505050508152602001600260008773ffffffffffffffffffffffffffffffffffffffff1673ffffffffffffffffffffffffffffffffffffffff1681526020019081526020016000206002018054600181600116156101000203166002900480601f01602080910402602001604051908101604052809291908181526020018280546001816001161561010002031660029004801561171f5780601f106116f45761010080835404028352916020019161171f565b820191906000526020600020905b81548152906001019060200180831161170257829003601f168201915b50505050508152602001848152602001838152602001600260008773ffffffffffffffffffffffffffffffffffffffff1673ffffffffffffffffffffffffffffffffffffffff1681526020019081526020016000206005018054600181600116156101000203166002900480601f01602080910402602001604051908101604052809291908181526020018280546001816001161561010002031660029004801561180b5780601f106117e05761010080835404028352916020019161180b565b820191906000526020600020905b8154815290600101906020018083116117ee57829003601f168201915b5050505050815250905080600260008673ffffffffffffffffffffffffffffffffffffffff1673ffffffffffffffffffffffffffffffffffffffff168152602001908152602001600020600082015181600001908051906020019061187192919061192f565b50602082015181600101908051906020019061188e92919061192f565b5060408201518160020190805190602001906118ab92919061192f565b506060820151816003015560808201518160040190805190602001906118d292919061192f565b5060a08201518160050190805190602001906118ef92919061192f565b5090505050505050565b6040518060c001604052806060815260200160608152602001606081526020016000815260200160008152602001606081525090565b828054600181600116156101000203166002900490600052602060002090601f016020900481019282601f1061197057805160ff191683800117855561199e565b8280016001018555821561199e579182015b8281111561199d578251825591602001919060010190611982565b5b5090506119ab9190611a65565b5090565b828054600181600116156101000203166002900490600052602060002090601f016020900481019282601f106119f057805160ff1916838001178555611a1e565b82800160010185558215611a1e579182015b82811115611a1d578251825591602001919060010190611a02565b5b509050611a2b9190611a65565b5090565b6040518060c001604052806060815260200160608152602001606081526020016000815260200160608152602001606081525090565b611a8791905b80821115611a83576000816000905550600101611a6b565b5090565b90565b600081359050611a9981612262565b92915050565b600082601f830112611ab057600080fd5b8135611ac3611abe82612163565b612136565b91508082526020830160208301858383011115611adf57600080fd5b611aea83828461220f565b50505092915050565b600081359050611b0281612279565b92915050565b600060208284031215611b1a57600080fd5b6000611b2884828501611a8a565b91505092915050565b60008060008060808587031215611b4757600080fd5b6000611b5587828801611a8a565b9450506020611b6687828801611a8a565b935050604085013567ffffffffffffffff811115611b8357600080fd5b611b8f87828801611a9f565b925050606085013567ffffffffffffffff811115611bac57600080fd5b611bb887828801611a9f565b91505092959194509250565b60008060408385031215611bd757600080fd5b6000611be585828601611a8a565b925050602083013567ffffffffffffffff811115611c0257600080fd5b611c0e85828601611a9f565b9150509250929050565b600080600080600080600060e0888a031215611c3357600080fd5b6000611c418a828b01611a8a565b975050602088013567ffffffffffffffff811115611c5e57600080fd5b611c6a8a828b01611a9f565b965050604088013567ffffffffffffffff811115611c8757600080fd5b611c938a828b01611a9f565b955050606088013567ffffffffffffffff811115611cb057600080fd5b611cbc8a828b01611a9f565b9450506080611ccd8a828b01611af3565b93505060a088013567ffffffffffffffff811115611cea57600080fd5b611cf68a828b01611a9f565b92505060c088013567ffffffffffffffff811115611d1357600080fd5b611d1f8a828b01611a9f565b91505092959891949750929550565b600080600080600080600060e0888a031215611d4957600080fd5b6000611d578a828b01611a8a565b975050602088013567ffffffffffffffff811115611d7457600080fd5b611d808a828b01611a9f565b965050604088013567ffffffffffffffff811115611d9d57600080fd5b611da98a828b01611a9f565b955050606088013567ffffffffffffffff811115611dc657600080fd5b611dd28a828b01611a9f565b9450506080611de38a828b01611af3565b93505060a0611df48a828b01611af3565b92505060c088013567ffffffffffffffff811115611e1157600080fd5b611e1d8a828b01611a9f565b91505092959891949750929550565b600080600060608486031215611e4157600080fd5b6000611e4f86828701611a8a565b9350506020611e6086828701611af3565b925050604084013567ffffffffffffffff811115611e7d57600080fd5b611e8986828701611a9f565b9150509250925092565b600080600060608486031215611ea857600080fd5b6000611eb686828701611a8a565b9350506020611ec786828701611af3565b9250506040611ed886828701611af3565b9150509250925092565b611eeb816121d9565b82525050565b6000611efc8261219a565b611f0681856121b6565b9350611f1681856020860161221e565b611f1f81612251565b840191505092915050565b6000611f358261218f565b611f3f81856121a5565b9350611f4f81856020860161221e565b611f5881612251565b840191505092915050565b600060c0830160008301518482036000860152611f808282611f2a565b91505060208301518482036020860152611f9a8282611f2a565b91505060408301518482036040860152611fb48282611f2a565b9150506060830151611fc960608601826120a6565b5060808301518482036080860152611fe18282611f2a565b91505060a083015184820360a0860152611ffb8282611f2a565b9150508091505092915050565b600060c08301600083015184820360008601526120258282611f2a565b9150506020830151848203602086015261203f8282611f2a565b915050604083015184820360408601526120598282611f2a565b915050606083015161206e60608601826120a6565b50608083015161208160808601826120a6565b5060a083015184820360a08601526120998282611f2a565b9150508091505092915050565b6120af81612205565b82525050565b60006020820190506120ca6000830184611ee2565b92915050565b600060208201905081810360008301526120ea8184611ef1565b905092915050565b6000602082019050818103600083015261210c8184611f63565b905092915050565b6000602082019050818103600083015261212e8184612008565b905092915050565b6000604051905081810181811067ffffffffffffffff8211171561215957600080fd5b8060405250919050565b600067ffffffffffffffff82111561217a57600080fd5b601f19601f8301169050602081019050919050565b600081519050919050565b600081519050919050565b600082825260208201905092915050565b600082825260208201905092915050565b60006121d2826121e5565b9050919050565b60008115159050919050565b600073ffffffffffffffffffffffffffffffffffffffff82169050919050565b6000819050919050565b82818337600083830152505050565b60005b8381101561223c578082015181840152602081019050612221565b8381111561224b576000848401525b50505050565b6000601f19601f8301169050919050565b61226b816121c7565b811461227657600080fd5b50565b61228281612205565b811461228d57600080fd5b5056fea365627a7a723158208636a4dfd5d57e068d3784dd804a7f3b4f82637d736d9adbfcf751c4f80747fc6c6578706572696d656e74616cf564736f6c63430005100040516d566b766f504769396a76767578734844564a44677a50457a6167426157535a52596f52447a55323434486a5a",
  "source": "pragma solidity >=0.4.21 <0.7.0;\r\npragma experimental ABIEncoderV2;\r\n\r\ncontract SimpleStorage {\r\n    address admin = 0x7C0E53eEb5368BC36a17841E63b1815C0783A6Ec;\r\n    //Use ipfs to hash\r\n    string token;\r\n    \r\n    constructor() public {\r\n        token = \"QmVkvoPGi9jvvuxsHDVJDgzPEzagBaWSZRYoRDzU244HjZ\";\r\n    }\r\n    \r\n    // // Keep this struct for ipfs\r\n    // struct vaccineDelivery {\r\n    //     string locationTo;\r\n    //     string locationFrom;\r\n    //     address addressTo;\r\n    //     address addressFrom;\r\n    //     string sentOutDate;\r\n    //     string recivedDate;\r\n    //     uint vaccineCount;\r\n    // }\r\n    \r\n    struct clinic {\r\n        string location;\r\n        string longitude;\r\n        string latitude;\r\n        uint vaccineCount;\r\n        string requestedVaccines;\r\n        string vaccineDeliveries;\r\n    }\r\n    \r\n    struct distributor {\r\n        string location;\r\n        string longitude;\r\n        string latitude;\r\n        uint vaccineCount;\r\n        uint projectedVaccines;\r\n        string vaccineDeliveries;\r\n    }\r\n    \r\n    mapping(address => clinic) clinics;\r\n    mapping(address => distributor) distributors;\r\n    mapping(address => string) accountType;\r\n    \r\n    function isAdmin(address _address) public view returns (bool) {\r\n        if (_address == admin) {\r\n            return (true);\r\n        } else {\r\n            return (false);\r\n        }\r\n    }\r\n    \r\n    function getTokens(address _address) public view returns (string memory) {\r\n        if (_address == admin) {\r\n            return (token);\r\n        } else {\r\n            return (\"Unauthorized\");\r\n        }\r\n    }\r\n    \r\n    function updateTokens(address _address, string memory _token) public returns (string memory) {\r\n        if (_address == admin) {\r\n            token = _token;\r\n        } else {\r\n            return (\"Unauthorized\");\r\n        }\r\n    }\r\n    \r\n    function getDistributorInfo(address _address) public view returns (distributor memory){\r\n        return (distributors[_address]);\r\n    }\r\n    \r\n    function getClinicInfo(address _address) public view returns (clinic memory){\r\n        return (clinics[_address]);\r\n    }\r\n    \r\n    function createDistributor(address _address, string memory _longitude, string memory _latitude, string memory _location, uint _vaccineCount, uint _projectedVaccines, string memory _vaccineDeliveries) public {\r\n        distributor memory tempDistributor = distributor(_location, _longitude, _latitude, _vaccineCount, _projectedVaccines, _vaccineDeliveries);\r\n        distributors[_address] = tempDistributor;\r\n        accountType[_address] = \"supplier\";\r\n    }\r\n    \r\n    function createClinic(address _address, string memory _longitude, string memory _latitude, string memory _location, uint _vaccineCount, string memory _requestVaccines, string memory _vaccineDeliveries) public {\r\n        clinic memory tempClinic = clinic(_location, _longitude, _latitude, _vaccineCount, _requestVaccines, _vaccineDeliveries);\r\n        clinics[_address] = tempClinic;\r\n        accountType[_address] = \"clinic\";\r\n    }\r\n    \r\n    // mapping(address => bool) testMap;\r\n    // function test(address _address) public view returns (bool){\r\n    //     return(testMap[_address]);\r\n    // }\r\n    \r\n    function updateClinicInventory(address _address, uint _vaccineCount, string memory _requestVaccines) public {\r\n        clinic memory tempClinic = clinic(clinics[_address].location, clinics[_address].longitude, clinics[_address].latitude, _vaccineCount, _requestVaccines, clinics[_address].vaccineDeliveries);\r\n        clinics[_address] = tempClinic;\r\n    }\r\n    \r\n    function updateDistributorInventory(address _address, uint _vaccineCount, uint _projectedVaccines) public {\r\n        distributor memory tempDistributor = distributor(distributors[_address].location, distributors[_address].longitude, distributors[_address].latitude, _vaccineCount, _projectedVaccines, distributors[_address].vaccineDeliveries);\r\n        distributors[_address] = tempDistributor;\r\n    }\r\n    \r\n    function manageShipment(address _addressFrom, address _addressTo, string memory _vaccineDeliveriesFrom, string memory _vaccineDeliveriesTo) public {\r\n        clinics[_addressTo].vaccineDeliveries = _vaccineDeliveriesTo;\r\n        distributors[_addressFrom].vaccineDeliveries = _vaccineDeliveriesFrom;\r\n    }\r\n    \r\n    function getAccountType(address _address) public view returns (string memory) {\r\n        return (accountType[_address]);\r\n    }\r\n}\r\n",
  "sourcePath": "C:/code/HackTheNorth2020++/contracts/SimpleStorage.sol",
  "compiler": {
    "name": "solc",
    "version": "0.5.16+commit.9c3226ce.Emscripten.clang"
  },
  "schemaVersion": "3.3.3",
  "updatedAt": "2021-01-17T09:07:57.863Z",
  "networkType": "ethereum",
  "devdoc": {
    "methods": {}
  },
  "userdoc": {
    "methods": {}
  }
}